{"abi":[{"type":"constructor","inputs":[{"name":"entranceFee","type":"uint256","internalType":"uint256"}],"stateMutability":"nonpayable"},{"type":"function","name":"enterRaffle","inputs":[],"outputs":[],"stateMutability":"payable"},{"type":"function","name":"getEntranceFee","inputs":[],"outputs":[{"name":"","type":"uint256","internalType":"uint256"}],"stateMutability":"view"},{"type":"function","name":"pickWinner","inputs":[],"outputs":[],"stateMutability":"nonpayable"},{"type":"error","name":"Raffle__SendMoreToEnterRaffle","inputs":[]}],"bytecode":{"object":"0x60a060405234801561001057600080fd5b5060405161016d38038061016d83398101604081905261002f91610037565b608052610050565b60006020828403121561004957600080fd5b5051919050565b60805160ff61006e60003960008181604301526089015260ff6000f3fe60806040526004361060305760003560e01c806309bc33a71460355780632cfcc5391460745780635d495aea14607c575b600080fd5b348015604057600080fd5b507f000000000000000000000000000000000000000000000000000000000000000060405190815260200160405180910390f35b607a6087565b005b348015607a57600080fd5b7f000000000000000000000000000000000000000000000000000000000000000034101560c75760405163181c600560e11b815260040160405180910390fd5b56fea26469706673582212201fa2aeb4333f60310b3813080ccb03c61ed2196b89c913ef0e9795980c88faef64736f6c63430008130033","linkReferences":{}},"methodIdentifiers":{"enterRaffle()":"2cfcc539","getEntranceFee()":"09bc33a7","pickWinner()":"5d495aea"},"id":0}