{"abi":[{"type":"constructor","inputs":[{"name":"entranceFee","type":"uint256","internalType":"uint256"},{"name":"interval","type":"uint256","internalType":"uint256"},{"name":"vrfCoordinator","type":"address","internalType":"address"},{"name":"gasLine","type":"bytes32","internalType":"bytes32"},{"name":"callbackGasLimit","type":"uint32","internalType":"uint32"},{"name":"subscriptionId","type":"uint256","internalType":"uint256"}],"stateMutability":"nonpayable"},{"type":"function","name":"acceptOwnership","inputs":[],"outputs":[],"stateMutability":"nonpayable"},{"type":"function","name":"checkUpkeep","inputs":[{"name":"","type":"bytes","internalType":"bytes"}],"outputs":[{"name":"upkeepNeeded","type":"bool","internalType":"bool"},{"name":"","type":"bytes","internalType":"bytes"}],"stateMutability":"view"},{"type":"function","name":"enterRaffle","inputs":[],"outputs":[],"stateMutability":"payable"},{"type":"function","name":"getEntranceFee","inputs":[],"outputs":[{"name":"","type":"uint256","internalType":"uint256"}],"stateMutability":"view"},{"type":"function","name":"getLastTimeStamp","inputs":[],"outputs":[{"name":"","type":"uint256","internalType":"uint256"}],"stateMutability":"view"},{"type":"function","name":"getPlayer","inputs":[{"name":"indexOfPlayer","type":"uint256","internalType":"uint256"}],"outputs":[{"name":"","type":"address","internalType":"address"}],"stateMutability":"view"},{"type":"function","name":"getRaffleState","inputs":[],"outputs":[{"name":"","type":"uint8","internalType":"enum Raffle.RaffleState"}],"stateMutability":"view"},{"type":"function","name":"getRecentWinner","inputs":[],"outputs":[{"name":"","type":"address","internalType":"address"}],"stateMutability":"view"},{"type":"function","name":"owner","inputs":[],"outputs":[{"name":"","type":"address","internalType":"address"}],"stateMutability":"view"},{"type":"function","name":"performUpkeep","inputs":[{"name":"","type":"bytes","internalType":"bytes"}],"outputs":[],"stateMutability":"nonpayable"},{"type":"function","name":"rawFulfillRandomWords","inputs":[{"name":"requestId","type":"uint256","internalType":"uint256"},{"name":"randomWords","type":"uint256[]","internalType":"uint256[]"}],"outputs":[],"stateMutability":"nonpayable"},{"type":"function","name":"s_vrfCoordinator","inputs":[],"outputs":[{"name":"","type":"address","internalType":"contract IVRFCoordinatorV2Plus"}],"stateMutability":"view"},{"type":"function","name":"setCoordinator","inputs":[{"name":"_vrfCoordinator","type":"address","internalType":"address"}],"outputs":[],"stateMutability":"nonpayable"},{"type":"function","name":"transferOwnership","inputs":[{"name":"to","type":"address","internalType":"address"}],"outputs":[],"stateMutability":"nonpayable"},{"type":"event","name":"CoordinatorSet","inputs":[{"name":"vrfCoordinator","type":"address","indexed":false,"internalType":"address"}],"anonymous":false},{"type":"event","name":"OwnershipTransferRequested","inputs":[{"name":"from","type":"address","indexed":true,"internalType":"address"},{"name":"to","type":"address","indexed":true,"internalType":"address"}],"anonymous":false},{"type":"event","name":"OwnershipTransferred","inputs":[{"name":"from","type":"address","indexed":true,"internalType":"address"},{"name":"to","type":"address","indexed":true,"internalType":"address"}],"anonymous":false},{"type":"event","name":"RaffleEntered","inputs":[{"name":"player","type":"address","indexed":true,"internalType":"address"}],"anonymous":false},{"type":"event","name":"RequestRaffleWinner","inputs":[{"name":"requestId","type":"uint256","indexed":true,"internalType":"uint256"}],"anonymous":false},{"type":"event","name":"WinnerPicked","inputs":[{"name":"player","type":"address","indexed":true,"internalType":"address"}],"anonymous":false},{"type":"error","name":"OnlyCoordinatorCanFulfill","inputs":[{"name":"have","type":"address","internalType":"address"},{"name":"want","type":"address","internalType":"address"}]},{"type":"error","name":"OnlyOwnerOrCoordinator","inputs":[{"name":"have","type":"address","internalType":"address"},{"name":"owner","type":"address","internalType":"address"},{"name":"coordinator","type":"address","internalType":"address"}]},{"type":"error","name":"Raffle__RaffleNotOpen","inputs":[]},{"type":"error","name":"Raffle__SendMoreToEnterRaffle","inputs":[]},{"type":"error","name":"Raffle__TransferFaild","inputs":[]},{"type":"error","name":"Raffle__UpkeepNotNeeded","inputs":[{"name":"balance","type":"uint256","internalType":"uint256"},{"name":"playersLength","type":"uint256","internalType":"uint256"},{"name":"raffleState","type":"uint256","internalType":"uint256"}]},{"type":"error","name":"ZeroAddress","inputs":[]}],"bytecode":{"object":"0x61012060405234801561001157600080fd5b50604051611256380380611256833981016040819052610030916101e0565b8333806000816100875760405162461bcd60e51b815260206004820152601860248201527f43616e6e6f7420736574206f776e657220746f207a65726f000000000000000060448201526064015b60405180910390fd5b600080546001600160a01b0319166001600160a01b03848116919091179091558116156100b7576100b781610137565b5050506001600160a01b0381166100e15760405163d92e233d60e01b815260040160405180910390fd5b600280546001600160a01b0319166001600160a01b039290921691909117905560809590955260a0939093524260045560c0525060e09190915263ffffffff16610100526005805460ff60a01b19169055610255565b336001600160a01b0382160361018f5760405162461bcd60e51b815260206004820152601760248201527f43616e6e6f74207472616e7366657220746f2073656c66000000000000000000604482015260640161007e565b600180546001600160a01b0319166001600160a01b0383811691821790925560008054604051929316917fed8889f560326eb138920d842192f0eb3dd22b4f139c87a2c57538e05bae12789190a350565b60008060008060008060c087890312156101f957600080fd5b86516020880151604089015191975095506001600160a01b038116811461021f57600080fd5b60608801516080890151919550935063ffffffff8116811461024057600080fd5b8092505060a087015190509295509295509295565b60805160a05160c05160e05161010051610fb761029f600039600061053101526000610501015260006104de0152600061063801526000818160f101526103140152610fb76000f3fe6080604052600436106100dd5760003560e01c806379ba50971161007f5780639eccacf6116100595780639eccacf614610248578063c1c244e814610268578063e55ae4e81461027d578063f2fde38b1461029d57600080fd5b806379ba5097146101f55780638da5cb5b1461020a5780638ea981171461022857600080fd5b80632cfcc539116100bb5780632cfcc5391461016d5780634585e33b14610175578063473f1ddc146101955780636e04ff0d146101c757600080fd5b806309bc33a7146100e2578063115cbaf5146101245780631fe543e31461014b575b600080fd5b3480156100ee57600080fd5b507f00000000000000000000000000000000000000000000000000000000000000005b6040519081526020015b60405180910390f35b34801561013057600080fd5b50600554600160a01b900460ff1660405161011b9190610c1a565b34801561015757600080fd5b5061016b610166366004610c42565b6102bd565b005b61016b610312565b34801561018157600080fd5b5061016b610190366004610cc1565b6103ff565b3480156101a157600080fd5b506005546001600160a01b03165b6040516001600160a01b03909116815260200161011b565b3480156101d357600080fd5b506101e76101e2366004610d49565b610630565b60405161011b929190610e40565b34801561020157600080fd5b5061016b6106d2565b34801561021657600080fd5b506000546001600160a01b03166101af565b34801561023457600080fd5b5061016b610243366004610e63565b61077c565b34801561025457600080fd5b506002546101af906001600160a01b031681565b34801561027457600080fd5b50600454610111565b34801561028957600080fd5b506101af610298366004610e93565b61086e565b3480156102a957600080fd5b5061016b6102b8366004610e63565b61089e565b6002546001600160a01b031633146103025760025460405163073e64fd60e21b81523360048201526001600160a01b0390911660248201526044015b60405180910390fd5b61030d8383836108b2565b505050565b7f00000000000000000000000000000000000000000000000000000000000000003410156103535760405163181c600560e11b815260040160405180910390fd5b6000600554600160a01b900460ff16600181111561037357610373610c04565b146103915760405163349289c560e21b815260040160405180910390fd5b6003805460018101825560009182527fc2575a0e9e593c00f959f8c92f12db2869c3395a3b0502d05e2516446f71f85b0180546001600160a01b0319163390811790915560405190917f634f3211e3a4e43fee5a21ad9f87ca153b300fc78b1c557a2057dbe9c63bcb4791a2565b600061041960405180602001604052806000815250610630565b5090508061046f57600354600554479190600160a01b900460ff16600181111561044557610445610c04565b604051632c2193d560e11b81526004810193909352602483019190915260448201526064016102f9565b600047116104bf5760405162461bcd60e51b815260206004820152601f60248201527f496e73756666696369656e742062616c616e636520666f722075706b6565700060448201526064016102f9565b6005805460ff60a01b1916600160a01b1790556040805160c0810182527f000000000000000000000000000000000000000000000000000000000000000081527f00000000000000000000000000000000000000000000000000000000000000006020808301919091526003828401527f000000000000000000000000000000000000000000000000000000000000000063ffffffff166060830152600160808301819052835191820190935291825260009160a082019061058090610a1b565b9052600254604051634d8e1c2f60e11b81529192506000916001600160a01b0390911690639b1c385e906105b8908590600401610eac565b6020604051808303816000875af11580156105d7573d6000803e3d6000fd5b505050506040513d601f19601f820116820180604052508101906105fb9190610f09565b60405190915081907fde6349b018d6c03d837b67d9a198a6ba4842546f2295fe963fae141e5dbaef8190600090a25050505050565b6000606060007f0000000000000000000000000000000000000000000000000000000000000000600454426106659190610f22565b101590506000600560149054906101000a900460ff16600181111561068c5761068c610c04565b600354901591504715159015158380156106a35750825b80156106ac5750815b80156106b55750805b604080516020810190915260008152909890975095505050505050565b6001546001600160a01b031633146107255760405162461bcd60e51b815260206004820152601660248201527526bab9ba10313290383937b837b9b2b21037bbb732b960511b60448201526064016102f9565b60008054336001600160a01b0319808316821784556001805490911690556040516001600160a01b0390921692909183917f8be0079c531659141344cd1fd0a4f28419497f9722a3daafe3b4186f6b6457e091a350565b6000546001600160a01b031633148015906107a257506002546001600160a01b03163314155b156107f357336107ba6000546001600160a01b031690565b60025460405163061db9c160e01b81526001600160a01b03938416600482015291831660248301529190911660448201526064016102f9565b6001600160a01b03811661081a5760405163d92e233d60e01b815260040160405180910390fd5b600280546001600160a01b0319166001600160a01b0383169081179091556040519081527fd1a6a14209a385a964d036e404cb5cfb71f4000cdb03c9366292430787261be69060200160405180910390a150565b60006003828154811061088357610883610f49565b6000918252602090912001546001600160a01b031692915050565b6108a6610a8c565b6108af81610ae1565b50565b600354600090838383816108c8576108c8610f49565b905060200201356108d99190610f5f565b90506000600382815481106108f0576108f0610f49565b6000918252602082200154600580546001600160a01b0319166001600160a01b0390921691821790559150604051908082528060200260200182016040528015610944578160200160208202803683370190505b50805161095991600391602090910190610b8a565b506005805460ff60a01b19169055426004556040516001600160a01b038216907f5b690ec4a06fe979403046eaeea5b3ce38524683c3001f662c8b5a829632f7df90600090a26000816001600160a01b03164760405160006040518083038185875af1925050503d80600081146109ec576040519150601f19603f3d011682016040523d82523d6000602084013e6109f1565b606091505b5050905080610a1357604051631cdea26360e21b815260040160405180910390fd5b505050505050565b60607f92fd13387c7fe7befbc38d303d6468778fb9731bc4583f17d92989c6fcfdeaaa82604051602401610a5491511515815260200190565b60408051601f198184030181529190526020810180516001600160e01b03166001600160e01b03199093169290921790915292915050565b6000546001600160a01b03163314610adf5760405162461bcd60e51b815260206004820152601660248201527527b7363c9031b0b63630b1363290313c9037bbb732b960511b60448201526064016102f9565b565b336001600160a01b03821603610b395760405162461bcd60e51b815260206004820152601760248201527f43616e6e6f74207472616e7366657220746f2073656c6600000000000000000060448201526064016102f9565b600180546001600160a01b0319166001600160a01b0383811691821790925560008054604051929316917fed8889f560326eb138920d842192f0eb3dd22b4f139c87a2c57538e05bae12789190a350565b828054828255906000526020600020908101928215610bdf579160200282015b82811115610bdf57825182546001600160a01b0319166001600160a01b03909116178255602090920191600190910190610baa565b50610beb929150610bef565b5090565b5b80821115610beb5760008155600101610bf0565b634e487b7160e01b600052602160045260246000fd5b6020810160028310610c3c57634e487b7160e01b600052602160045260246000fd5b91905290565b600080600060408486031215610c5757600080fd5b83359250602084013567ffffffffffffffff80821115610c7657600080fd5b818601915086601f830112610c8a57600080fd5b813581811115610c9957600080fd5b8760208260051b8501011115610cae57600080fd5b6020830194508093505050509250925092565b60008060208385031215610cd457600080fd5b823567ffffffffffffffff80821115610cec57600080fd5b818501915085601f830112610d0057600080fd5b813581811115610d0f57600080fd5b866020828501011115610d2157600080fd5b60209290920196919550909350505050565b634e487b7160e01b600052604160045260246000fd5b600060208284031215610d5b57600080fd5b813567ffffffffffffffff80821115610d7357600080fd5b818401915084601f830112610d8757600080fd5b813581811115610d9957610d99610d33565b604051601f8201601f19908116603f01168101908382118183101715610dc157610dc1610d33565b81604052828152876020848701011115610dda57600080fd5b826020860160208301376000928101602001929092525095945050505050565b6000815180845260005b81811015610e2057602081850181015186830182015201610e04565b506000602082860101526020601f19601f83011685010191505092915050565b8215158152604060208201526000610e5b6040830184610dfa565b949350505050565b600060208284031215610e7557600080fd5b81356001600160a01b0381168114610e8c57600080fd5b9392505050565b600060208284031215610ea557600080fd5b5035919050565b60208152815160208201526020820151604082015261ffff60408301511660608201526000606083015163ffffffff80821660808501528060808601511660a0850152505060a083015160c080840152610e5b60e0840182610dfa565b600060208284031215610f1b57600080fd5b5051919050565b81810381811115610f4357634e487b7160e01b600052601160045260246000fd5b92915050565b634e487b7160e01b600052603260045260246000fd5b600082610f7c57634e487b7160e01b600052601260045260246000fd5b50069056fea2646970667358221220e5368e06d8005e18facd3ab72e69a59286c7b3ee4ddcd05c702b82592af2c63b64736f6c63430008130033","linkReferences":{}},"methodIdentifiers":{"acceptOwnership()":"79ba5097","checkUpkeep(bytes)":"6e04ff0d","enterRaffle()":"2cfcc539","getEntranceFee()":"09bc33a7","getLastTimeStamp()":"c1c244e8","getPlayer(uint256)":"e55ae4e8","getRaffleState()":"115cbaf5","getRecentWinner()":"473f1ddc","owner()":"8da5cb5b","performUpkeep(bytes)":"4585e33b","rawFulfillRandomWords(uint256,uint256[])":"1fe543e3","s_vrfCoordinator()":"9eccacf6","setCoordinator(address)":"8ea98117","transferOwnership(address)":"f2fde38b"},"id":44}