{"abi":[{"type":"constructor","inputs":[{"name":"entranceFee","type":"uint256","internalType":"uint256"},{"name":"interval","type":"uint256","internalType":"uint256"},{"name":"vrfCoordinator","type":"address","internalType":"address"},{"name":"gasLine","type":"bytes32","internalType":"bytes32"},{"name":"callbackGasLimit","type":"uint32","internalType":"uint32"},{"name":"subscriptionId","type":"uint256","internalType":"uint256"}],"stateMutability":"nonpayable"},{"type":"function","name":"acceptOwnership","inputs":[],"outputs":[],"stateMutability":"nonpayable"},{"type":"function","name":"checkUpkeep","inputs":[{"name":"","type":"bytes","internalType":"bytes"}],"outputs":[{"name":"upkeepNeeded","type":"bool","internalType":"bool"},{"name":"","type":"bytes","internalType":"bytes"}],"stateMutability":"view"},{"type":"function","name":"enterRaffle","inputs":[],"outputs":[],"stateMutability":"payable"},{"type":"function","name":"getEntranceFee","inputs":[],"outputs":[{"name":"","type":"uint256","internalType":"uint256"}],"stateMutability":"view"},{"type":"function","name":"getPlayer","inputs":[{"name":"indexOfPlayer","type":"uint256","internalType":"uint256"}],"outputs":[{"name":"","type":"address","internalType":"address"}],"stateMutability":"view"},{"type":"function","name":"getRaffleState","inputs":[],"outputs":[{"name":"","type":"uint8","internalType":"enum Raffle.RaffleState"}],"stateMutability":"view"},{"type":"function","name":"owner","inputs":[],"outputs":[{"name":"","type":"address","internalType":"address"}],"stateMutability":"view"},{"type":"function","name":"performUpkeep","inputs":[{"name":"","type":"bytes","internalType":"bytes"}],"outputs":[],"stateMutability":"nonpayable"},{"type":"function","name":"rawFulfillRandomWords","inputs":[{"name":"requestId","type":"uint256","internalType":"uint256"},{"name":"randomWords","type":"uint256[]","internalType":"uint256[]"}],"outputs":[],"stateMutability":"nonpayable"},{"type":"function","name":"s_vrfCoordinator","inputs":[],"outputs":[{"name":"","type":"address","internalType":"contract IVRFCoordinatorV2Plus"}],"stateMutability":"view"},{"type":"function","name":"setCoordinator","inputs":[{"name":"_vrfCoordinator","type":"address","internalType":"address"}],"outputs":[],"stateMutability":"nonpayable"},{"type":"function","name":"transferOwnership","inputs":[{"name":"to","type":"address","internalType":"address"}],"outputs":[],"stateMutability":"nonpayable"},{"type":"event","name":"CoordinatorSet","inputs":[{"name":"vrfCoordinator","type":"address","indexed":false,"internalType":"address"}],"anonymous":false},{"type":"event","name":"OwnershipTransferRequested","inputs":[{"name":"from","type":"address","indexed":true,"internalType":"address"},{"name":"to","type":"address","indexed":true,"internalType":"address"}],"anonymous":false},{"type":"event","name":"OwnershipTransferred","inputs":[{"name":"from","type":"address","indexed":true,"internalType":"address"},{"name":"to","type":"address","indexed":true,"internalType":"address"}],"anonymous":false},{"type":"event","name":"RaffleEntered","inputs":[{"name":"player","type":"address","indexed":true,"internalType":"address"}],"anonymous":false},{"type":"event","name":"WinnerPicked","inputs":[{"name":"winner","type":"address","indexed":true,"internalType":"address"}],"anonymous":false},{"type":"error","name":"OnlyCoordinatorCanFulfill","inputs":[{"name":"have","type":"address","internalType":"address"},{"name":"want","type":"address","internalType":"address"}]},{"type":"error","name":"OnlyOwnerOrCoordinator","inputs":[{"name":"have","type":"address","internalType":"address"},{"name":"owner","type":"address","internalType":"address"},{"name":"coordinator","type":"address","internalType":"address"}]},{"type":"error","name":"Raffle__RaffleNotOpen","inputs":[]},{"type":"error","name":"Raffle__SendMoreToEnterRaffle","inputs":[]},{"type":"error","name":"Raffle__TransferFaild","inputs":[]},{"type":"error","name":"Raffle__UpkeepNotNeeded","inputs":[{"name":"balance","type":"uint256","internalType":"uint256"},{"name":"playersLength","type":"uint256","internalType":"uint256"},{"name":"raffleState","type":"uint256","internalType":"uint256"}]},{"type":"error","name":"ZeroAddress","inputs":[]}],"bytecode":{"object":"0x6101206040523480156200001257600080fd5b5060405162002342380380620023428339818101604052810190620000389190620004a7565b83338060008073ffffffffffffffffffffffffffffffffffffffff168273ffffffffffffffffffffffffffffffffffffffff1603620000ae576040517f08c379a0000000000000000000000000000000000000000000000000000000008152600401620000a590620005a4565b60405180910390fd5b816000806101000a81548173ffffffffffffffffffffffffffffffffffffffff021916908373ffffffffffffffffffffffffffffffffffffffff160217905550600073ffffffffffffffffffffffffffffffffffffffff168173ffffffffffffffffffffffffffffffffffffffff1614620001355762000134816200025760201b60201c565b5b505050600073ffffffffffffffffffffffffffffffffffffffff168173ffffffffffffffffffffffffffffffffffffffff16036200019f576040517fd92e233d00000000000000000000000000000000000000000000000000000000815260040160405180910390fd5b80600260006101000a81548173ffffffffffffffffffffffffffffffffffffffff021916908373ffffffffffffffffffffffffffffffffffffffff1602179055505085608081815250508460a08181525050426004819055508260c081815250508060e081815250508163ffffffff166101008163ffffffff16815250506000600560146101000a81548160ff02191690836001811115620002465762000245620005c6565b5b021790555050505050505062000667565b3373ffffffffffffffffffffffffffffffffffffffff168173ffffffffffffffffffffffffffffffffffffffff1603620002c8576040517f08c379a0000000000000000000000000000000000000000000000000000000008152600401620002bf9062000645565b60405180910390fd5b80600160006101000a81548173ffffffffffffffffffffffffffffffffffffffff021916908373ffffffffffffffffffffffffffffffffffffffff1602179055508073ffffffffffffffffffffffffffffffffffffffff1660008054906101000a900473ffffffffffffffffffffffffffffffffffffffff1673ffffffffffffffffffffffffffffffffffffffff167fed8889f560326eb138920d842192f0eb3dd22b4f139c87a2c57538e05bae127860405160405180910390a350565b600080fd5b6000819050919050565b620003a0816200038b565b8114620003ac57600080fd5b50565b600081519050620003c08162000395565b92915050565b600073ffffffffffffffffffffffffffffffffffffffff82169050919050565b6000620003f382620003c6565b9050919050565b6200040581620003e6565b81146200041157600080fd5b50565b6000815190506200042581620003fa565b92915050565b6000819050919050565b62000440816200042b565b81146200044c57600080fd5b50565b600081519050620004608162000435565b92915050565b600063ffffffff82169050919050565b620004818162000466565b81146200048d57600080fd5b50565b600081519050620004a18162000476565b92915050565b60008060008060008060c08789031215620004c757620004c662000386565b5b6000620004d789828a01620003af565b9650506020620004ea89828a01620003af565b9550506040620004fd89828a0162000414565b94505060606200051089828a016200044f565b93505060806200052389828a0162000490565b92505060a06200053689828a01620003af565b9150509295509295509295565b600082825260208201905092915050565b7f43616e6e6f7420736574206f776e657220746f207a65726f0000000000000000600082015250565b60006200058c60188362000543565b9150620005998262000554565b602082019050919050565b60006020820190508181036000830152620005bf816200057d565b9050919050565b7f4e487b7100000000000000000000000000000000000000000000000000000000600052602160045260246000fd5b7f43616e6e6f74207472616e7366657220746f2073656c66000000000000000000600082015250565b60006200062d60178362000543565b91506200063a82620005f5565b602082019050919050565b6000602082019050818103600083015262000660816200061e565b9050919050565b60805160a05160c05160e05161010051611c8f620006b36000396000610626015260006105f5015260006105cf0152600061072d01526000818161029c015261039f0152611c8f6000f3fe6080604052600436106100a75760003560e01c806379ba50971161006457806379ba50971461019c5780638da5cb5b146101b35780638ea98117146101de5780639eccacf614610207578063e55ae4e814610232578063f2fde38b1461026f576100a7565b806309bc33a7146100ac578063115cbaf5146100d75780631fe543e3146101025780632cfcc5391461012b5780634585e33b146101355780636e04ff0d1461015e575b600080fd5b3480156100b857600080fd5b506100c1610298565b6040516100ce919061114f565b60405180910390f35b3480156100e357600080fd5b506100ec6102c0565b6040516100f991906111e1565b60405180910390f35b34801561010e57600080fd5b50610129600480360381019061012491906112a1565b6102d7565b005b61013361039d565b005b34801561014157600080fd5b5061015c60048036038101906101579190611357565b61050c565b005b34801561016a57600080fd5b50610185600480360381019061018091906114e5565b610725565b6040516101939291906115c8565b60405180910390f35b3480156101a857600080fd5b506101b16107e7565b005b3480156101bf57600080fd5b506101c861097c565b6040516101d59190611639565b60405180910390f35b3480156101ea57600080fd5b5061020560048036038101906102009190611680565b6109a5565b005b34801561021357600080fd5b5061021c610b86565b604051610229919061170c565b60405180910390f35b34801561023e57600080fd5b5061025960048036038101906102549190611727565b610bac565b6040516102669190611639565b60405180910390f35b34801561027b57600080fd5b5061029660048036038101906102919190611680565b610bf4565b005b60007f0000000000000000000000000000000000000000000000000000000000000000905090565b6000600560149054906101000a900460ff16905090565b600260009054906101000a900473ffffffffffffffffffffffffffffffffffffffff1673ffffffffffffffffffffffffffffffffffffffff163373ffffffffffffffffffffffffffffffffffffffff161461038d5733600260009054906101000a900473ffffffffffffffffffffffffffffffffffffffff166040517f1cf993f4000000000000000000000000000000000000000000000000000000008152600401610384929190611754565b60405180910390fd5b610398838383610c08565b505050565b7f00000000000000000000000000000000000000000000000000000000000000003410156103f7576040517f3038c00a00000000000000000000000000000000000000000000000000000000815260040160405180910390fd5b6000600181111561040b5761040a61116a565b5b600560149054906101000a900460ff16600181111561042d5761042c61116a565b5b14610464576040517fd24a271400000000000000000000000000000000000000000000000000000000815260040160405180910390fd5b6003339080600181540180825580915050600190039060005260206000200160009091909190916101000a81548173ffffffffffffffffffffffffffffffffffffffff021916908373ffffffffffffffffffffffffffffffffffffffff1602179055503373ffffffffffffffffffffffffffffffffffffffff167f634f3211e3a4e43fee5a21ad9f87ca153b300fc78b1c557a2057dbe9c63bcb4760405160405180910390a2565b600061052660405180602001604052806000815250610725565b509050806105955747600380549050600560149054906101000a900460ff1660018111156105575761055661116a565b5b6040517f584327aa00000000000000000000000000000000000000000000000000000000815260040161058c9392919061177d565b60405180910390fd5b6001600560146101000a81548160ff021916908360018111156105bb576105ba61116a565b5b021790555060006040518060c001604052807f000000000000000000000000000000000000000000000000000000000000000081526020017f00000000000000000000000000000000000000000000000000000000000000008152602001600361ffff1681526020017f000000000000000000000000000000000000000000000000000000000000000063ffffffff168152602001600163ffffffff168152602001610677604051806020016040528060011515815250610e3b565b81525090506000600260009054906101000a900473ffffffffffffffffffffffffffffffffffffffff1673ffffffffffffffffffffffffffffffffffffffff16639b1c385e836040518263ffffffff1660e01b81526004016106d991906118eb565b6020604051808303816000875af11580156106f8573d6000803e3d6000fd5b505050506040513d601f19601f8201168201806040525081019061071c9190611922565b90505050505050565b6000606060007f00000000000000000000000000000000000000000000000000000000000000006004544261075a919061197e565b1015905060008060018111156107735761077261116a565b5b600560149054906101000a900460ff1660018111156107955761079461116a565b5b149050600080471190506000806003805490501190508380156107b55750825b80156107be5750815b80156107c75750805b955085604051806020016040528060008152509550955050505050915091565b600160009054906101000a900473ffffffffffffffffffffffffffffffffffffffff1673ffffffffffffffffffffffffffffffffffffffff163373ffffffffffffffffffffffffffffffffffffffff1614610877576040517f08c379a000000000000000000000000000000000000000000000000000000000815260040161086e90611a0f565b60405180910390fd5b60008060009054906101000a900473ffffffffffffffffffffffffffffffffffffffff169050336000806101000a81548173ffffffffffffffffffffffffffffffffffffffff021916908373ffffffffffffffffffffffffffffffffffffffff1602179055506000600160006101000a81548173ffffffffffffffffffffffffffffffffffffffff021916908373ffffffffffffffffffffffffffffffffffffffff1602179055503373ffffffffffffffffffffffffffffffffffffffff168173ffffffffffffffffffffffffffffffffffffffff167f8be0079c531659141344cd1fd0a4f28419497f9722a3daafe3b4186f6b6457e060405160405180910390a350565b60008060009054906101000a900473ffffffffffffffffffffffffffffffffffffffff16905090565b6109ad61097c565b73ffffffffffffffffffffffffffffffffffffffff163373ffffffffffffffffffffffffffffffffffffffff1614158015610a365750600260009054906101000a900473ffffffffffffffffffffffffffffffffffffffff1673ffffffffffffffffffffffffffffffffffffffff163373ffffffffffffffffffffffffffffffffffffffff1614155b15610aa55733610a4461097c565b600260009054906101000a900473ffffffffffffffffffffffffffffffffffffffff166040517f061db9c1000000000000000000000000000000000000000000000000000000008152600401610a9c93929190611a2f565b60405180910390fd5b600073ffffffffffffffffffffffffffffffffffffffff168173ffffffffffffffffffffffffffffffffffffffff1603610b0b576040517fd92e233d00000000000000000000000000000000000000000000000000000000815260040160405180910390fd5b80600260006101000a81548173ffffffffffffffffffffffffffffffffffffffff021916908373ffffffffffffffffffffffffffffffffffffffff1602179055507fd1a6a14209a385a964d036e404cb5cfb71f4000cdb03c9366292430787261be681604051610b7b9190611639565b60405180910390a150565b600260009054906101000a900473ffffffffffffffffffffffffffffffffffffffff1681565b600060038281548110610bc257610bc1611a66565b5b9060005260206000200160009054906101000a900473ffffffffffffffffffffffffffffffffffffffff169050919050565b610bfc610ed3565b610c0581610f63565b50565b600060038054905083836000818110610c2457610c23611a66565b5b90506020020135610c359190611ac4565b9050600060038281548110610c4d57610c4c611a66565b5b9060005260206000200160009054906101000a900473ffffffffffffffffffffffffffffffffffffffff16905080600560006101000a81548173ffffffffffffffffffffffffffffffffffffffff021916908373ffffffffffffffffffffffffffffffffffffffff1602179055506000600560146101000a81548160ff02191690836001811115610ce157610ce061116a565b5b0217905550600067ffffffffffffffff811115610d0157610d006113ba565b5b604051908082528060200260200182016040528015610d2f5781602001602082028036833780820191505090505b5060039080519060200190610d4592919061108f565b50426004819055508073ffffffffffffffffffffffffffffffffffffffff167f5b690ec4a06fe979403046eaeea5b3ce38524683c3001f662c8b5a829632f7df60405160405180910390a260008173ffffffffffffffffffffffffffffffffffffffff1647604051610db690611b26565b60006040518083038185875af1925050503d8060008114610df3576040519150601f19603f3d011682016040523d82523d6000602084013e610df8565b606091505b5050905080610e33576040517f737a898c00000000000000000000000000000000000000000000000000000000815260040160405180910390fd5b505050505050565b60607f92fd13387c7fe7befbc38d303d6468778fb9731bc4583f17d92989c6fcfdeaaa82604051602401610e6f9190611b66565b604051602081830303815290604052907bffffffffffffffffffffffffffffffffffffffffffffffffffffffff19166020820180517bffffffffffffffffffffffffffffffffffffffffffffffffffffffff83818316178352505050509050919050565b60008054906101000a900473ffffffffffffffffffffffffffffffffffffffff1673ffffffffffffffffffffffffffffffffffffffff163373ffffffffffffffffffffffffffffffffffffffff1614610f61576040517f08c379a0000000000000000000000000000000000000000000000000000000008152600401610f5890611bcd565b60405180910390fd5b565b3373ffffffffffffffffffffffffffffffffffffffff168173ffffffffffffffffffffffffffffffffffffffff1603610fd1576040517f08c379a0000000000000000000000000000000000000000000000000000000008152600401610fc890611c39565b60405180910390fd5b80600160006101000a81548173ffffffffffffffffffffffffffffffffffffffff021916908373ffffffffffffffffffffffffffffffffffffffff1602179055508073ffffffffffffffffffffffffffffffffffffffff1660008054906101000a900473ffffffffffffffffffffffffffffffffffffffff1673ffffffffffffffffffffffffffffffffffffffff167fed8889f560326eb138920d842192f0eb3dd22b4f139c87a2c57538e05bae127860405160405180910390a350565b828054828255906000526020600020908101928215611108579160200282015b828111156111075782518260006101000a81548173ffffffffffffffffffffffffffffffffffffffff021916908373ffffffffffffffffffffffffffffffffffffffff160217905550916020019190600101906110af565b5b5090506111159190611119565b5090565b5b8082111561113257600081600090555060010161111a565b5090565b6000819050919050565b61114981611136565b82525050565b60006020820190506111646000830184611140565b92915050565b7f4e487b7100000000000000000000000000000000000000000000000000000000600052602160045260246000fd5b600281106111aa576111a961116a565b5b50565b60008190506111bb82611199565b919050565b60006111cb826111ad565b9050919050565b6111db816111c0565b82525050565b60006020820190506111f660008301846111d2565b92915050565b6000604051905090565b600080fd5b600080fd5b61121981611136565b811461122457600080fd5b50565b60008135905061123681611210565b92915050565b600080fd5b600080fd5b600080fd5b60008083601f8401126112615761126061123c565b5b8235905067ffffffffffffffff81111561127e5761127d611241565b5b60208301915083602082028301111561129a57611299611246565b5b9250929050565b6000806000604084860312156112ba576112b9611206565b5b60006112c886828701611227565b935050602084013567ffffffffffffffff8111156112e9576112e861120b565b5b6112f58682870161124b565b92509250509250925092565b60008083601f8401126113175761131661123c565b5b8235905067ffffffffffffffff81111561133457611333611241565b5b6020830191508360018202830111156113505761134f611246565b5b9250929050565b6000806020838503121561136e5761136d611206565b5b600083013567ffffffffffffffff81111561138c5761138b61120b565b5b61139885828601611301565b92509250509250929050565b600080fd5b6000601f19601f8301169050919050565b7f4e487b7100000000000000000000000000000000000000000000000000000000600052604160045260246000fd5b6113f2826113a9565b810181811067ffffffffffffffff82111715611411576114106113ba565b5b80604052505050565b60006114246111fc565b905061143082826113e9565b919050565b600067ffffffffffffffff8211156114505761144f6113ba565b5b611459826113a9565b9050602081019050919050565b82818337600083830152505050565b600061148861148384611435565b61141a565b9050828152602081018484840111156114a4576114a36113a4565b5b6114af848285611466565b509392505050565b600082601f8301126114cc576114cb61123c565b5b81356114dc848260208601611475565b91505092915050565b6000602082840312156114fb576114fa611206565b5b600082013567ffffffffffffffff8111156115195761151861120b565b5b611525848285016114b7565b91505092915050565b60008115159050919050565b6115438161152e565b82525050565b600081519050919050565b600082825260208201905092915050565b60005b83811015611583578082015181840152602081019050611568565b60008484015250505050565b600061159a82611549565b6115a48185611554565b93506115b4818560208601611565565b6115bd816113a9565b840191505092915050565b60006040820190506115dd600083018561153a565b81810360208301526115ef818461158f565b90509392505050565b600073ffffffffffffffffffffffffffffffffffffffff82169050919050565b6000611623826115f8565b9050919050565b61163381611618565b82525050565b600060208201905061164e600083018461162a565b92915050565b61165d81611618565b811461166857600080fd5b50565b60008135905061167a81611654565b92915050565b60006020828403121561169657611695611206565b5b60006116a48482850161166b565b91505092915050565b6000819050919050565b60006116d26116cd6116c8846115f8565b6116ad565b6115f8565b9050919050565b60006116e4826116b7565b9050919050565b60006116f6826116d9565b9050919050565b611706816116eb565b82525050565b600060208201905061172160008301846116fd565b92915050565b60006020828403121561173d5761173c611206565b5b600061174b84828501611227565b91505092915050565b6000604082019050611769600083018561162a565b611776602083018461162a565b9392505050565b60006060820190506117926000830186611140565b61179f6020830185611140565b6117ac6040830184611140565b949350505050565b6000819050919050565b6117c7816117b4565b82525050565b6117d681611136565b82525050565b600061ffff82169050919050565b6117f3816117dc565b82525050565b600063ffffffff82169050919050565b611812816117f9565b82525050565b600082825260208201905092915050565b600061183482611549565b61183e8185611818565b935061184e818560208601611565565b611857816113a9565b840191505092915050565b600060c08301600083015161187a60008601826117be565b50602083015161188d60208601826117cd565b5060408301516118a060408601826117ea565b5060608301516118b36060860182611809565b5060808301516118c66080860182611809565b5060a083015184820360a08601526118de8282611829565b9150508091505092915050565b600060208201905081810360008301526119058184611862565b905092915050565b60008151905061191c81611210565b92915050565b60006020828403121561193857611937611206565b5b60006119468482850161190d565b91505092915050565b7f4e487b7100000000000000000000000000000000000000000000000000000000600052601160045260246000fd5b600061198982611136565b915061199483611136565b92508282039050818111156119ac576119ab61194f565b5b92915050565b600082825260208201905092915050565b7f4d7573742062652070726f706f736564206f776e657200000000000000000000600082015250565b60006119f96016836119b2565b9150611a04826119c3565b602082019050919050565b60006020820190508181036000830152611a28816119ec565b9050919050565b6000606082019050611a44600083018661162a565b611a51602083018561162a565b611a5e604083018461162a565b949350505050565b7f4e487b7100000000000000000000000000000000000000000000000000000000600052603260045260246000fd5b7f4e487b7100000000000000000000000000000000000000000000000000000000600052601260045260246000fd5b6000611acf82611136565b9150611ada83611136565b925082611aea57611ae9611a95565b5b828206905092915050565b600081905092915050565b50565b6000611b10600083611af5565b9150611b1b82611b00565b600082019050919050565b6000611b3182611b03565b9150819050919050565b611b448161152e565b82525050565b602082016000820151611b606000850182611b3b565b50505050565b6000602082019050611b7b6000830184611b4a565b92915050565b7f4f6e6c792063616c6c61626c65206279206f776e657200000000000000000000600082015250565b6000611bb76016836119b2565b9150611bc282611b81565b602082019050919050565b60006020820190508181036000830152611be681611baa565b9050919050565b7f43616e6e6f74207472616e7366657220746f2073656c66000000000000000000600082015250565b6000611c236017836119b2565b9150611c2e82611bed565b602082019050919050565b60006020820190508181036000830152611c5281611c16565b905091905056fea26469706673582212200490be49131bb42cfe90a861c000391652c92652f2f2078d3ebd6b6e1062c54464736f6c63430008130033","linkReferences":{}},"methodIdentifiers":{"acceptOwnership()":"79ba5097","checkUpkeep(bytes)":"6e04ff0d","enterRaffle()":"2cfcc539","getEntranceFee()":"09bc33a7","getPlayer(uint256)":"e55ae4e8","getRaffleState()":"115cbaf5","owner()":"8da5cb5b","performUpkeep(bytes)":"4585e33b","rawFulfillRandomWords(uint256,uint256[])":"1fe543e3","s_vrfCoordinator()":"9eccacf6","setCoordinator(address)":"8ea98117","transferOwnership(address)":"f2fde38b"},"id":40}