{"abi":[{"type":"constructor","inputs":[{"name":"entranceFee","type":"uint256","internalType":"uint256"},{"name":"interval","type":"uint256","internalType":"uint256"},{"name":"vrfCoordinator","type":"address","internalType":"address"},{"name":"gasLine","type":"bytes32","internalType":"bytes32"},{"name":"callbackGasLimit","type":"uint32","internalType":"uint32"},{"name":"subscriptionId","type":"uint256","internalType":"uint256"}],"stateMutability":"nonpayable"},{"type":"function","name":"acceptOwnership","inputs":[],"outputs":[],"stateMutability":"nonpayable"},{"type":"function","name":"checkUpkeep","inputs":[{"name":"","type":"bytes","internalType":"bytes"}],"outputs":[{"name":"upkeepNeeded","type":"bool","internalType":"bool"},{"name":"","type":"bytes","internalType":"bytes"}],"stateMutability":"view"},{"type":"function","name":"enterRaffle","inputs":[],"outputs":[],"stateMutability":"payable"},{"type":"function","name":"getEntranceFee","inputs":[],"outputs":[{"name":"","type":"uint256","internalType":"uint256"}],"stateMutability":"view"},{"type":"function","name":"owner","inputs":[],"outputs":[{"name":"","type":"address","internalType":"address"}],"stateMutability":"view"},{"type":"function","name":"performUpkeep","inputs":[{"name":"","type":"bytes","internalType":"bytes"}],"outputs":[],"stateMutability":"nonpayable"},{"type":"function","name":"rawFulfillRandomWords","inputs":[{"name":"requestId","type":"uint256","internalType":"uint256"},{"name":"randomWords","type":"uint256[]","internalType":"uint256[]"}],"outputs":[],"stateMutability":"nonpayable"},{"type":"function","name":"s_vrfCoordinator","inputs":[],"outputs":[{"name":"","type":"address","internalType":"contract IVRFCoordinatorV2Plus"}],"stateMutability":"view"},{"type":"function","name":"setCoordinator","inputs":[{"name":"_vrfCoordinator","type":"address","internalType":"address"}],"outputs":[],"stateMutability":"nonpayable"},{"type":"function","name":"transferOwnership","inputs":[{"name":"to","type":"address","internalType":"address"}],"outputs":[],"stateMutability":"nonpayable"},{"type":"event","name":"CoordinatorSet","inputs":[{"name":"vrfCoordinator","type":"address","indexed":false,"internalType":"address"}],"anonymous":false},{"type":"event","name":"OwnershipTransferRequested","inputs":[{"name":"from","type":"address","indexed":true,"internalType":"address"},{"name":"to","type":"address","indexed":true,"internalType":"address"}],"anonymous":false},{"type":"event","name":"OwnershipTransferred","inputs":[{"name":"from","type":"address","indexed":true,"internalType":"address"},{"name":"to","type":"address","indexed":true,"internalType":"address"}],"anonymous":false},{"type":"event","name":"RaffleEntered","inputs":[{"name":"player","type":"address","indexed":true,"internalType":"address"}],"anonymous":false},{"type":"event","name":"WinnerPicked","inputs":[{"name":"winner","type":"address","indexed":true,"internalType":"address"}],"anonymous":false},{"type":"error","name":"OnlyCoordinatorCanFulfill","inputs":[{"name":"have","type":"address","internalType":"address"},{"name":"want","type":"address","internalType":"address"}]},{"type":"error","name":"OnlyOwnerOrCoordinator","inputs":[{"name":"have","type":"address","internalType":"address"},{"name":"owner","type":"address","internalType":"address"},{"name":"coordinator","type":"address","internalType":"address"}]},{"type":"error","name":"Raffle__RaffleNotOpen","inputs":[]},{"type":"error","name":"Raffle__SendMoreToEnterRaffle","inputs":[]},{"type":"error","name":"Raffle__TransferFaild","inputs":[]},{"type":"error","name":"Raffle__UpkeepNotNeeded","inputs":[{"name":"balance","type":"uint256","internalType":"uint256"},{"name":"playersLength","type":"uint256","internalType":"uint256"},{"name":"raffleState","type":"uint256","internalType":"uint256"}]},{"type":"error","name":"ZeroAddress","inputs":[]}],"bytecode":{"object":"0x61012060405234801561001157600080fd5b5060405161106d38038061106d833981016040819052610030916101e0565b8333806000816100875760405162461bcd60e51b815260206004820152601860248201527f43616e6e6f7420736574206f776e657220746f207a65726f000000000000000060448201526064015b60405180910390fd5b600080546001600160a01b0319166001600160a01b03848116919091179091558116156100b7576100b781610137565b5050506001600160a01b0381166100e15760405163d92e233d60e01b815260040160405180910390fd5b600280546001600160a01b0319166001600160a01b039290921691909117905560809590955260a0939093524260045560c0525060e09190915263ffffffff16610100526005805460ff60a01b19169055610255565b336001600160a01b0382160361018f5760405162461bcd60e51b815260206004820152601760248201527f43616e6e6f74207472616e7366657220746f2073656c66000000000000000000604482015260640161007e565b600180546001600160a01b0319166001600160a01b0383811691821790925560008054604051929316917fed8889f560326eb138920d842192f0eb3dd22b4f139c87a2c57538e05bae12789190a350565b60008060008060008060c087890312156101f957600080fd5b86516020880151604089015191975095506001600160a01b038116811461021f57600080fd5b60608801516080890151919550935063ffffffff8116811461024057600080fd5b8092505060a087015190509295509295509295565b60805160a05160c05160e05161010051610dce61029f6000396000610419015260006103e9015260006103c6015260006104f301526000818160a8015261024c0152610dce6000f3fe6080604052600436106100915760003560e01c806379ba50971161005957806379ba50971461014e5780638da5cb5b146101635780638ea98117146101955780639eccacf6146101b5578063f2fde38b146101d557600080fd5b806309bc33a7146100965780631fe543e3146100d65780632cfcc539146100f85780634585e33b146101005780636e04ff0d14610120575b600080fd5b3480156100a257600080fd5b506040517f000000000000000000000000000000000000000000000000000000000000000081526020015b60405180910390f35b3480156100e257600080fd5b506100f66100f1366004610a5c565b6101f5565b005b6100f661024a565b34801561010c57600080fd5b506100f661011b366004610adb565b610337565b34801561012c57600080fd5b5061014061013b366004610b63565b6104eb565b6040516100cd929190610c5a565b34801561015a57600080fd5b506100f661058b565b34801561016f57600080fd5b506000546001600160a01b03165b6040516001600160a01b0390911681526020016100cd565b3480156101a157600080fd5b506100f66101b0366004610c7d565b610635565b3480156101c157600080fd5b5060025461017d906001600160a01b031681565b3480156101e157600080fd5b506100f66101f0366004610c7d565b610727565b6002546001600160a01b0316331461023a5760025460405163073e64fd60e21b81523360048201526001600160a01b0390911660248201526044015b60405180910390fd5b61024583838361073b565b505050565b7f000000000000000000000000000000000000000000000000000000000000000034101561028b5760405163181c600560e11b815260040160405180910390fd5b6000600554600160a01b900460ff1660018111156102ab576102ab610cad565b146102c95760405163349289c560e21b815260040160405180910390fd5b6003805460018101825560009182527fc2575a0e9e593c00f959f8c92f12db2869c3395a3b0502d05e2516446f71f85b0180546001600160a01b0319163390811790915560405190917f634f3211e3a4e43fee5a21ad9f87ca153b300fc78b1c557a2057dbe9c63bcb4791a2565b6000610351604051806020016040528060008152506104eb565b509050806103a757600354600554479190600160a01b900460ff16600181111561037d5761037d610cad565b604051632c2193d560e11b8152600481019390935260248301919091526044820152606401610231565b6005805460ff60a01b1916600160a01b1790556040805160c0810182527f000000000000000000000000000000000000000000000000000000000000000081527f00000000000000000000000000000000000000000000000000000000000000006020808301919091526003828401527f000000000000000000000000000000000000000000000000000000000000000063ffffffff166060830152600160808301819052835191820190935291825260009160a082019061046890610873565b9052600254604051634d8e1c2f60e11b81529192506000916001600160a01b0390911690639b1c385e906104a0908590600401610cc3565b6020604051808303816000875af11580156104bf573d6000803e3d6000fd5b505050506040513d601f19601f820116820180604052508101906104e39190610d20565b505050505050565b6000606060007f0000000000000000000000000000000000000000000000000000000000000000600454426105209190610d39565b10159050600080600554600160a01b900460ff16600181111561054557610545610cad565b6003549114915047151590151583801561055c5750825b80156105655750815b801561056e5750805b604080516020810190915260008152909890975095505050505050565b6001546001600160a01b031633146105de5760405162461bcd60e51b815260206004820152601660248201527526bab9ba10313290383937b837b9b2b21037bbb732b960511b6044820152606401610231565b60008054336001600160a01b0319808316821784556001805490911690556040516001600160a01b0390921692909183917f8be0079c531659141344cd1fd0a4f28419497f9722a3daafe3b4186f6b6457e091a350565b6000546001600160a01b0316331480159061065b57506002546001600160a01b03163314155b156106ac57336106736000546001600160a01b031690565b60025460405163061db9c160e01b81526001600160a01b0393841660048201529183166024830152919091166044820152606401610231565b6001600160a01b0381166106d35760405163d92e233d60e01b815260040160405180910390fd5b600280546001600160a01b0319166001600160a01b0383169081179091556040519081527fd1a6a14209a385a964d036e404cb5cfb71f4000cdb03c9366292430787261be69060200160405180910390a150565b61072f6108e4565b61073881610939565b50565b6003546000908383838161075157610751610d60565b905060200201356107629190610d76565b905060006003828154811061077957610779610d60565b600091825260208083209190910154600580546001600160a81b0319166001600160a01b039092169182179055604080519384529183019182905291519192506107c691600391906109e2565b50426004556040516001600160a01b038216907f5b690ec4a06fe979403046eaeea5b3ce38524683c3001f662c8b5a829632f7df90600090a26000816001600160a01b03164760405160006040518083038185875af1925050503d806000811461084c576040519150601f19603f3d011682016040523d82523d6000602084013e610851565b606091505b50509050806104e357604051631cdea26360e21b815260040160405180910390fd5b60607f92fd13387c7fe7befbc38d303d6468778fb9731bc4583f17d92989c6fcfdeaaa826040516024016108ac91511515815260200190565b60408051601f198184030181529190526020810180516001600160e01b03166001600160e01b03199093169290921790915292915050565b6000546001600160a01b031633146109375760405162461bcd60e51b815260206004820152601660248201527527b7363c9031b0b63630b1363290313c9037bbb732b960511b6044820152606401610231565b565b336001600160a01b038216036109915760405162461bcd60e51b815260206004820152601760248201527f43616e6e6f74207472616e7366657220746f2073656c660000000000000000006044820152606401610231565b600180546001600160a01b0319166001600160a01b0383811691821790925560008054604051929316917fed8889f560326eb138920d842192f0eb3dd22b4f139c87a2c57538e05bae12789190a350565b828054828255906000526020600020908101928215610a37579160200282015b82811115610a3757825182546001600160a01b0319166001600160a01b03909116178255602090920191600190910190610a02565b50610a43929150610a47565b5090565b5b80821115610a435760008155600101610a48565b600080600060408486031215610a7157600080fd5b83359250602084013567ffffffffffffffff80821115610a9057600080fd5b818601915086601f830112610aa457600080fd5b813581811115610ab357600080fd5b8760208260051b8501011115610ac857600080fd5b6020830194508093505050509250925092565b60008060208385031215610aee57600080fd5b823567ffffffffffffffff80821115610b0657600080fd5b818501915085601f830112610b1a57600080fd5b813581811115610b2957600080fd5b866020828501011115610b3b57600080fd5b60209290920196919550909350505050565b634e487b7160e01b600052604160045260246000fd5b600060208284031215610b7557600080fd5b813567ffffffffffffffff80821115610b8d57600080fd5b818401915084601f830112610ba157600080fd5b813581811115610bb357610bb3610b4d565b604051601f8201601f19908116603f01168101908382118183101715610bdb57610bdb610b4d565b81604052828152876020848701011115610bf457600080fd5b826020860160208301376000928101602001929092525095945050505050565b6000815180845260005b81811015610c3a57602081850181015186830182015201610c1e565b506000602082860101526020601f19601f83011685010191505092915050565b8215158152604060208201526000610c756040830184610c14565b949350505050565b600060208284031215610c8f57600080fd5b81356001600160a01b0381168114610ca657600080fd5b9392505050565b634e487b7160e01b600052602160045260246000fd5b60208152815160208201526020820151604082015261ffff60408301511660608201526000606083015163ffffffff80821660808501528060808601511660a0850152505060a083015160c080840152610c7560e0840182610c14565b600060208284031215610d3257600080fd5b5051919050565b81810381811115610d5a57634e487b7160e01b600052601160045260246000fd5b92915050565b634e487b7160e01b600052603260045260246000fd5b600082610d9357634e487b7160e01b600052601260045260246000fd5b50069056fea2646970667358221220d55e84e68b915c306500f080b352c693389c15878c4b8f9e330d760e9ae7893964736f6c63430008130033","linkReferences":{}},"methodIdentifiers":{"acceptOwnership()":"79ba5097","checkUpkeep(bytes)":"6e04ff0d","enterRaffle()":"2cfcc539","getEntranceFee()":"09bc33a7","owner()":"8da5cb5b","performUpkeep(bytes)":"4585e33b","rawFulfillRandomWords(uint256,uint256[])":"1fe543e3","s_vrfCoordinator()":"9eccacf6","setCoordinator(address)":"8ea98117","transferOwnership(address)":"f2fde38b"},"id":35}