{"abi":[{"type":"constructor","inputs":[{"name":"entranceFee","type":"uint256","internalType":"uint256"},{"name":"interval","type":"uint256","internalType":"uint256"},{"name":"vrfCoordinator","type":"address","internalType":"address"},{"name":"gasLine","type":"bytes32","internalType":"bytes32"},{"name":"subscriptionId","type":"uint256","internalType":"uint256"},{"name":"callbackGasLimit","type":"uint32","internalType":"uint32"}],"stateMutability":"nonpayable"},{"type":"function","name":"acceptOwnership","inputs":[],"outputs":[],"stateMutability":"nonpayable"},{"type":"function","name":"enterRaffle","inputs":[],"outputs":[],"stateMutability":"payable"},{"type":"function","name":"getEntranceFee","inputs":[],"outputs":[{"name":"","type":"uint256","internalType":"uint256"}],"stateMutability":"view"},{"type":"function","name":"owner","inputs":[],"outputs":[{"name":"","type":"address","internalType":"address"}],"stateMutability":"view"},{"type":"function","name":"pickWinner","inputs":[],"outputs":[],"stateMutability":"nonpayable"},{"type":"function","name":"rawFulfillRandomWords","inputs":[{"name":"requestId","type":"uint256","internalType":"uint256"},{"name":"randomWords","type":"uint256[]","internalType":"uint256[]"}],"outputs":[],"stateMutability":"nonpayable"},{"type":"function","name":"s_vrfCoordinator","inputs":[],"outputs":[{"name":"","type":"address","internalType":"contract IVRFCoordinatorV2Plus"}],"stateMutability":"view"},{"type":"function","name":"setCoordinator","inputs":[{"name":"_vrfCoordinator","type":"address","internalType":"address"}],"outputs":[],"stateMutability":"nonpayable"},{"type":"function","name":"transferOwnership","inputs":[{"name":"to","type":"address","internalType":"address"}],"outputs":[],"stateMutability":"nonpayable"},{"type":"event","name":"CoordinatorSet","inputs":[{"name":"vrfCoordinator","type":"address","indexed":false,"internalType":"address"}],"anonymous":false},{"type":"event","name":"OwnershipTransferRequested","inputs":[{"name":"from","type":"address","indexed":true,"internalType":"address"},{"name":"to","type":"address","indexed":true,"internalType":"address"}],"anonymous":false},{"type":"event","name":"OwnershipTransferred","inputs":[{"name":"from","type":"address","indexed":true,"internalType":"address"},{"name":"to","type":"address","indexed":true,"internalType":"address"}],"anonymous":false},{"type":"event","name":"RaffleEntered","inputs":[{"name":"player","type":"address","indexed":true,"internalType":"address"}],"anonymous":false},{"type":"error","name":"OnlyCoordinatorCanFulfill","inputs":[{"name":"have","type":"address","internalType":"address"},{"name":"want","type":"address","internalType":"address"}]},{"type":"error","name":"OnlyOwnerOrCoordinator","inputs":[{"name":"have","type":"address","internalType":"address"},{"name":"owner","type":"address","internalType":"address"},{"name":"coordinator","type":"address","internalType":"address"}]},{"type":"error","name":"Raffle_RaffleNotOpen","inputs":[]},{"type":"error","name":"Raffle__SendMoreToEnterRaffle","inputs":[]},{"type":"error","name":"Raffle__TransferFaild","inputs":[]},{"type":"error","name":"ZeroAddress","inputs":[]}],"bytecode":{"object":"0x61012060405234801561001157600080fd5b50604051610db8380380610db8833981016040819052610030916101dd565b8333806000816100875760405162461bcd60e51b815260206004820152601860248201527f43616e6e6f7420736574206f776e657220746f207a65726f000000000000000060448201526064015b60405180910390fd5b600080546001600160a01b0319166001600160a01b03848116919091179091558116156100b7576100b781610134565b5050506001600160a01b0381166100e15760405163d92e233d60e01b815260040160405180910390fd5b600280546001600160a01b0319166001600160a01b039290921691909117905560809590955260a0939093524260045560c0525060e05263ffffffff16610100526005805460ff60a01b19169055610253565b336001600160a01b0382160361018c5760405162461bcd60e51b815260206004820152601760248201527f43616e6e6f74207472616e7366657220746f2073656c66000000000000000000604482015260640161007e565b600180546001600160a01b0319166001600160a01b0383811691821790925560008054604051929316917fed8889f560326eb138920d842192f0eb3dd22b4f139c87a2c57538e05bae12789190a350565b60008060008060008060c087890312156101f657600080fd5b86516020880151604089015191975095506001600160a01b038116811461021c57600080fd5b80945050606087015192506080870151915060a087015163ffffffff8116811461024557600080fd5b809150509295509295509295565b60805160a05160c05160e05161010051610b1b61029d600039600061039f0152600061036f0152600061034c015260006102f5015260008181609d01526102080152610b1b6000f3fe6080604052600436106100865760003560e01c806379ba50971161005957806379ba50971461010a5780638da5cb5b1461011f5780638ea98117146101515780639eccacf614610171578063f2fde38b1461019157600080fd5b806309bc33a71461008b5780631fe543e3146100cb5780632cfcc539146100ed5780635d495aea146100f5575b600080fd5b34801561009757600080fd5b506040517f000000000000000000000000000000000000000000000000000000000000000081526020015b60405180910390f35b3480156100d757600080fd5b506100eb6100e636600461090c565b6101b1565b005b6100eb610206565b34801561010157600080fd5b506100eb6102f3565b34801561011657600080fd5b506100eb610469565b34801561012b57600080fd5b506000546001600160a01b03165b6040516001600160a01b0390911681526020016100c2565b34801561015d57600080fd5b506100eb61016c36600461098b565b610513565b34801561017d57600080fd5b50600254610139906001600160a01b031681565b34801561019d57600080fd5b506100eb6101ac36600461098b565b610605565b6002546001600160a01b031633146101f65760025460405163073e64fd60e21b81523360048201526001600160a01b0390911660248201526044015b60405180910390fd5b610201838383610619565b505050565b7f00000000000000000000000000000000000000000000000000000000000000003410156102475760405163181c600560e11b815260040160405180910390fd5b6000600554600160a01b900460ff166001811115610267576102676109bb565b1461028557604051636eac21ed60e01b815260040160405180910390fd5b6003805460018101825560009182527fc2575a0e9e593c00f959f8c92f12db2869c3395a3b0502d05e2516446f71f85b0180546001600160a01b0319163390811790915560405190917f634f3211e3a4e43fee5a21ad9f87ca153b300fc78b1c557a2057dbe9c63bcb4791a2565b7f00000000000000000000000000000000000000000000000000000000000000006004544261032291906109d1565b101561032d57600080fd5b6005805460ff60a01b1916600160a01b1790556040805160c0810182527f000000000000000000000000000000000000000000000000000000000000000081527f00000000000000000000000000000000000000000000000000000000000000006020808301919091526003828401527f000000000000000000000000000000000000000000000000000000000000000063ffffffff166060830152600160808301819052835191820190935291825260009160a08201906103ee90610723565b9052600254604051634d8e1c2f60e11b81529192506000916001600160a01b0390911690639b1c385e906104269085906004016109f8565b6020604051808303816000875af1158015610445573d6000803e3d6000fd5b505050506040513d601f19601f820116820180604052508101906102019190610a94565b6001546001600160a01b031633146104bc5760405162461bcd60e51b815260206004820152601660248201527526bab9ba10313290383937b837b9b2b21037bbb732b960511b60448201526064016101ed565b60008054336001600160a01b0319808316821784556001805490911690556040516001600160a01b0390921692909183917f8be0079c531659141344cd1fd0a4f28419497f9722a3daafe3b4186f6b6457e091a350565b6000546001600160a01b0316331480159061053957506002546001600160a01b03163314155b1561058a57336105516000546001600160a01b031690565b60025460405163061db9c160e01b81526001600160a01b03938416600482015291831660248301529190911660448201526064016101ed565b6001600160a01b0381166105b15760405163d92e233d60e01b815260040160405180910390fd5b600280546001600160a01b0319166001600160a01b0383169081179091556040519081527fd1a6a14209a385a964d036e404cb5cfb71f4000cdb03c9366292430787261be69060200160405180910390a150565b61060d610794565b610616816107e9565b50565b6003546000908383838161062f5761062f610aad565b905060200201356106409190610ac3565b905060006003828154811061065757610657610aad565b600091825260208083209190910154600580546001600160a81b0319166001600160a01b039092169182179055604080519384529183019182905291519192506106a49160039190610892565b50426004556040516000906001600160a01b0383169047908381818185875af1925050503d80600081146106f4576040519150601f19603f3d011682016040523d82523d6000602084013e6106f9565b606091505b505090508061071b57604051631cdea26360e21b815260040160405180910390fd5b505050505050565b60607f92fd13387c7fe7befbc38d303d6468778fb9731bc4583f17d92989c6fcfdeaaa8260405160240161075c91511515815260200190565b60408051601f198184030181529190526020810180516001600160e01b03166001600160e01b03199093169290921790915292915050565b6000546001600160a01b031633146107e75760405162461bcd60e51b815260206004820152601660248201527527b7363c9031b0b63630b1363290313c9037bbb732b960511b60448201526064016101ed565b565b336001600160a01b038216036108415760405162461bcd60e51b815260206004820152601760248201527f43616e6e6f74207472616e7366657220746f2073656c6600000000000000000060448201526064016101ed565b600180546001600160a01b0319166001600160a01b0383811691821790925560008054604051929316917fed8889f560326eb138920d842192f0eb3dd22b4f139c87a2c57538e05bae12789190a350565b8280548282559060005260206000209081019282156108e7579160200282015b828111156108e757825182546001600160a01b0319166001600160a01b039091161782556020909201916001909101906108b2565b506108f39291506108f7565b5090565b5b808211156108f357600081556001016108f8565b60008060006040848603121561092157600080fd5b83359250602084013567ffffffffffffffff8082111561094057600080fd5b818601915086601f83011261095457600080fd5b81358181111561096357600080fd5b8760208260051b850101111561097857600080fd5b6020830194508093505050509250925092565b60006020828403121561099d57600080fd5b81356001600160a01b03811681146109b457600080fd5b9392505050565b634e487b7160e01b600052602160045260246000fd5b818103818111156109f257634e487b7160e01b600052601160045260246000fd5b92915050565b6000602080835283518184015280840151604084015261ffff6040850151166060840152606084015163ffffffff80821660808601528060808701511660a0860152505060a084015160c08085015280518060e086015260005b81811015610a6f5782810184015186820161010001528301610a52565b506101009250600083828701015282601f19601f830116860101935050505092915050565b600060208284031215610aa657600080fd5b5051919050565b634e487b7160e01b600052603260045260246000fd5b600082610ae057634e487b7160e01b600052601260045260246000fd5b50069056fea264697066735822122004534a2d77e019b7c509fde33ba789d16f52c0c261a6af102682a8630b2c5c0064736f6c63430008130033","linkReferences":{}},"methodIdentifiers":{"acceptOwnership()":"79ba5097","enterRaffle()":"2cfcc539","getEntranceFee()":"09bc33a7","owner()":"8da5cb5b","pickWinner()":"5d495aea","rawFulfillRandomWords(uint256,uint256[])":"1fe543e3","s_vrfCoordinator()":"9eccacf6","setCoordinator(address)":"8ea98117","transferOwnership(address)":"f2fde38b"},"id":8}